{
  "contractName": "Balance",
  "abi": [
    {
      "inputs": [],
      "payable": false,
      "stateMutability": "nonpayable",
      "type": "constructor"
    },
    {
      "anonymous": false,
      "inputs": [
        {
          "indexed": true,
          "internalType": "uint256",
          "name": "_numClaim",
          "type": "uint256"
        }
      ],
      "name": "eventClaim",
      "type": "event"
    },
    {
      "constant": true,
      "inputs": [
        {
          "internalType": "address",
          "name": "",
          "type": "address"
        },
        {
          "internalType": "uint256",
          "name": "",
          "type": "uint256"
        }
      ],
      "name": "childClaims",
      "outputs": [
        {
          "internalType": "uint256",
          "name": "index",
          "type": "uint256"
        },
        {
          "internalType": "uint256",
          "name": "day",
          "type": "uint256"
        },
        {
          "internalType": "uint256",
          "name": "month",
          "type": "uint256"
        },
        {
          "internalType": "uint256",
          "name": "year",
          "type": "uint256"
        },
        {
          "internalType": "uint256",
          "name": "amount",
          "type": "uint256"
        }
      ],
      "payable": false,
      "stateMutability": "view",
      "type": "function"
    },
    {
      "constant": true,
      "inputs": [
        {
          "internalType": "uint256",
          "name": "",
          "type": "uint256"
        }
      ],
      "name": "children",
      "outputs": [
        {
          "internalType": "address",
          "name": "",
          "type": "address"
        }
      ],
      "payable": false,
      "stateMutability": "view",
      "type": "function"
    },
    {
      "constant": true,
      "inputs": [
        {
          "internalType": "uint256",
          "name": "",
          "type": "uint256"
        }
      ],
      "name": "claims",
      "outputs": [
        {
          "internalType": "address",
          "name": "",
          "type": "address"
        }
      ],
      "payable": false,
      "stateMutability": "view",
      "type": "function"
    },
    {
      "constant": true,
      "inputs": [],
      "name": "numChild",
      "outputs": [
        {
          "internalType": "uint256",
          "name": "",
          "type": "uint256"
        }
      ],
      "payable": false,
      "stateMutability": "view",
      "type": "function"
    },
    {
      "constant": true,
      "inputs": [],
      "name": "numClaims",
      "outputs": [
        {
          "internalType": "uint256",
          "name": "",
          "type": "uint256"
        }
      ],
      "payable": false,
      "stateMutability": "view",
      "type": "function"
    },
    {
      "constant": false,
      "inputs": [
        {
          "internalType": "uint256",
          "name": "_tokenClaim",
          "type": "uint256"
        }
      ],
      "name": "addClaim",
      "outputs": [
        {
          "internalType": "bool",
          "name": "",
          "type": "bool"
        }
      ],
      "payable": false,
      "stateMutability": "nonpayable",
      "type": "function"
    },
    {
      "constant": true,
      "inputs": [],
      "name": "listClaims",
      "outputs": [
        {
          "internalType": "uint256[]",
          "name": "returnIndexes",
          "type": "uint256[]"
        },
        {
          "internalType": "uint256[]",
          "name": "returnDays",
          "type": "uint256[]"
        },
        {
          "internalType": "uint256[]",
          "name": "returnMonths",
          "type": "uint256[]"
        },
        {
          "internalType": "uint256[]",
          "name": "returnYears",
          "type": "uint256[]"
        },
        {
          "internalType": "uint256[]",
          "name": "returnAmounts",
          "type": "uint256[]"
        },
        {
          "internalType": "address[]",
          "name": "returnAddresses",
          "type": "address[]"
        }
      ],
      "payable": false,
      "stateMutability": "view",
      "type": "function"
    },
    {
      "constant": false,
      "inputs": [
        {
          "internalType": "uint256",
          "name": "_numClaim",
          "type": "uint256"
        }
      ],
      "name": "deleteClaim",
      "outputs": [
        {
          "internalType": "bool",
          "name": "",
          "type": "bool"
        }
      ],
      "payable": false,
      "stateMutability": "nonpayable",
      "type": "function"
    },
    {
      "constant": false,
      "inputs": [
        {
          "internalType": "address",
          "name": "_childAddress",
          "type": "address"
        }
      ],
      "name": "addChild",
      "outputs": [],
      "payable": false,
      "stateMutability": "nonpayable",
      "type": "function"
    }
  ],
  "bytecode": "0x608060405234801561001057600080fd5b5060006003819055506115b9806100286000396000f3fe608060405234801561001057600080fd5b50600436106100925760003560e01c8063745c25f611610066578063745c25f61461032e57806382537c5d14610374578063a888c2cd146103ba578063d0f938e914610428578063fc0fc849146104a657610092565b8062e7d2e0146100975780631eee993a146100b55780633ac6f3db146100f95780637002ce42146102c0575b600080fd5b61009f6104c4565b6040518082815260200191505060405180910390f35b6100f7600480360360208110156100cb57600080fd5b81019080803573ffffffffffffffffffffffffffffffffffffffff1690602001909291905050506104ca565b005b610101610532565b6040518080602001806020018060200180602001806020018060200187810387528d818151815260200191508051906020019060200280838360005b8381101561015857808201518184015260208101905061013d565b5050505090500187810386528c818151815260200191508051906020019060200280838360005b8381101561019a57808201518184015260208101905061017f565b5050505090500187810385528b818151815260200191508051906020019060200280838360005b838110156101dc5780820151818401526020810190506101c1565b5050505090500187810384528a818151815260200191508051906020019060200280838360005b8381101561021e578082015181840152602081019050610203565b50505050905001878103835289818151815260200191508051906020019060200280838360005b83811015610260578082015181840152602081019050610245565b50505050905001878103825288818151815260200191508051906020019060200280838360005b838110156102a2578082015181840152602081019050610287565b505050509050019c5050505050505050505050505060405180910390f35b6102ec600480360360208110156102d657600080fd5b8101908080359060200190929190505050610c94565b604051808273ffffffffffffffffffffffffffffffffffffffff1673ffffffffffffffffffffffffffffffffffffffff16815260200191505060405180910390f35b61035a6004803603602081101561034457600080fd5b8101908080359060200190929190505050610cc7565b604051808215151515815260200191505060405180910390f35b6103a06004803603602081101561038a57600080fd5b8101908080359060200190929190505050610e51565b604051808215151515815260200191505060405180910390f35b6103e6600480360360208110156103d057600080fd5b8101908080359060200190929190505050611381565b604051808273ffffffffffffffffffffffffffffffffffffffff1673ffffffffffffffffffffffffffffffffffffffff16815260200191505060405180910390f35b6104746004803603604081101561043e57600080fd5b81019080803573ffffffffffffffffffffffffffffffffffffffff169060200190929190803590602001909291905050506113b4565b604051808681526020018581526020018481526020018381526020018281526020019550505050505060405180910390f35b6104ae611404565b6040518082815260200191505060405180910390f35b60045481565b80600080600454815260200190815260200160002060006101000a81548173ffffffffffffffffffffffffffffffffffffffff021916908373ffffffffffffffffffffffffffffffffffffffff16021790555060046000815480929190600101919050555050565b606080606080606080606060035460405190808252806020026020018201604052801561056e5781602001602082028038833980820191505090505b50905060606003546040519080825280602002602001820160405280156105a45781602001602082028038833980820191505090505b50905060606003546040519080825280602002602001820160405280156105da5781602001602082028038833980820191505090505b50905060606003546040519080825280602002602001820160405280156106105781602001602082028038833980820191505090505b50905060606003546040519080825280602002602001820160405280156106465781602001602082028038833980820191505090505b509050606060035460405190808252806020026020018201604052801561067c5781602001602082028038833980820191505090505b5090506000809050600080905060008090505b600354811015610c715760006001600083815260200190815260200160002060009054906101000a900473ffffffffffffffffffffffffffffffffffffffff16905060008080815260200190815260200160002060009054906101000a900473ffffffffffffffffffffffffffffffffffffffff1673ffffffffffffffffffffffffffffffffffffffff168173ffffffffffffffffffffffffffffffffffffffff1614156109cf57600260008273ffffffffffffffffffffffffffffffffffffffff1673ffffffffffffffffffffffffffffffffffffffff168152602001908152602001600020848154811061078157fe5b9060005260206000209060050201600001548a838151811061079f57fe5b602002602001018181525050600260008273ffffffffffffffffffffffffffffffffffffffff1673ffffffffffffffffffffffffffffffffffffffff16815260200190815260200160002084815481106107f557fe5b90600052602060002090600502016001015489838151811061081357fe5b602002602001018181525050600260008273ffffffffffffffffffffffffffffffffffffffff1673ffffffffffffffffffffffffffffffffffffffff168152602001908152602001600020848154811061086957fe5b90600052602060002090600502016002015488838151811061088757fe5b602002602001018181525050600260008273ffffffffffffffffffffffffffffffffffffffff1673ffffffffffffffffffffffffffffffffffffffff16815260200190815260200160002084815481106108dd57fe5b9060005260206000209060050201600301548783815181106108fb57fe5b602002602001018181525050600260008273ffffffffffffffffffffffffffffffffffffffff1673ffffffffffffffffffffffffffffffffffffffff168152602001908152602001600020848154811061095157fe5b90600052602060002090600502016004015486838151811061096f57fe5b6020026020010181815250508085838151811061098857fe5b602002602001019073ffffffffffffffffffffffffffffffffffffffff16908173ffffffffffffffffffffffffffffffffffffffff16815250508380600101945050610c63565b600260008273ffffffffffffffffffffffffffffffffffffffff1673ffffffffffffffffffffffffffffffffffffffff1681526020019081526020016000208381548110610a1957fe5b9060005260206000209060050201600001548a8381518110610a3757fe5b602002602001018181525050600260008273ffffffffffffffffffffffffffffffffffffffff1673ffffffffffffffffffffffffffffffffffffffff1681526020019081526020016000208381548110610a8d57fe5b906000526020600020906005020160010154898381518110610aab57fe5b602002602001018181525050600260008273ffffffffffffffffffffffffffffffffffffffff1673ffffffffffffffffffffffffffffffffffffffff1681526020019081526020016000208381548110610b0157fe5b906000526020600020906005020160020154888381518110610b1f57fe5b602002602001018181525050600260008273ffffffffffffffffffffffffffffffffffffffff1673ffffffffffffffffffffffffffffffffffffffff1681526020019081526020016000208381548110610b7557fe5b906000526020600020906005020160030154878381518110610b9357fe5b602002602001018181525050600260008273ffffffffffffffffffffffffffffffffffffffff1673ffffffffffffffffffffffffffffffffffffffff1681526020019081526020016000208381548110610be957fe5b906000526020600020906005020160040154868381518110610c0757fe5b60200260200101818152505080858381518110610c2057fe5b602002602001019073ffffffffffffffffffffffffffffffffffffffff16908173ffffffffffffffffffffffffffffffffffffffff168152505082806001019350505b50808060010191505061068f565b508787878787879d509d509d509d509d509d505050505050505050909192939495565b60006020528060005260406000206000915054906101000a900473ffffffffffffffffffffffffffffffffffffffff1681565b6000804290506000806000610cdb8461140a565b809350819450829550505050600260003373ffffffffffffffffffffffffffffffffffffffff1673ffffffffffffffffffffffffffffffffffffffff1681526020019081526020016000206040518060a001604052806003548152602001838152602001848152602001858152602001888152509080600181540180825580915050906001820390600052602060002090600502016000909192909190915060008201518160000155602082015181600101556040820151816002015560608201518160030155608082015181600401555050503360016000600354815260200190815260200160002060006101000a81548173ffffffffffffffffffffffffffffffffffffffff021916908373ffffffffffffffffffffffffffffffffffffffff1602179055506003600081548092919060010191905055506003547f4b7553ab86a36868c9bbf5bc6022aae785e60765ea158474b7d22fe4af282c4c60405160405180910390a26001945050505050919050565b6000806001600084815260200190815260200160002060009054906101000a900473ffffffffffffffffffffffffffffffffffffffff16905060008090505b600260008373ffffffffffffffffffffffffffffffffffffffff1673ffffffffffffffffffffffffffffffffffffffff168152602001908152602001600020805490508110156110e75783600260008473ffffffffffffffffffffffffffffffffffffffff1673ffffffffffffffffffffffffffffffffffffffff1681526020019081526020016000208281548110610f2557fe5b90600052602060002090600502016000015414156110da5760008490505b6001600260008573ffffffffffffffffffffffffffffffffffffffff1673ffffffffffffffffffffffffffffffffffffffff168152602001908152602001600020805490500381101561108557600260008473ffffffffffffffffffffffffffffffffffffffff1673ffffffffffffffffffffffffffffffffffffffff1681526020019081526020016000206001820181548110610fdd57fe5b9060005260206000209060050201600260008573ffffffffffffffffffffffffffffffffffffffff1673ffffffffffffffffffffffffffffffffffffffff168152602001908152602001600020828154811061103557fe5b906000526020600020906005020160008201548160000155600182015481600101556002820154816002015560038201548160030155600482015481600401559050508080600101915050610f43565b50600260008373ffffffffffffffffffffffffffffffffffffffff1673ffffffffffffffffffffffffffffffffffffffff1681526020019081526020016000208054809190600190036110d8919061150b565b505b8080600101915050610e90565b5060008390505b600160035403811015611363576001600060018301815260200190815260200160002060009054906101000a900473ffffffffffffffffffffffffffffffffffffffff166001600083815260200190815260200160002060006101000a81548173ffffffffffffffffffffffffffffffffffffffff021916908373ffffffffffffffffffffffffffffffffffffffff16021790555060008090505b600260006001600060018601815260200190815260200160002060009054906101000a900473ffffffffffffffffffffffffffffffffffffffff1673ffffffffffffffffffffffffffffffffffffffff1673ffffffffffffffffffffffffffffffffffffffff168152602001908152602001600020805490508110156113555760018201600260006001600060018701815260200190815260200160002060009054906101000a900473ffffffffffffffffffffffffffffffffffffffff1673ffffffffffffffffffffffffffffffffffffffff1673ffffffffffffffffffffffffffffffffffffffff168152602001908152602001600020828154811061128d57fe5b906000526020600020906005020160000154141561134857600260006001600060018601815260200190815260200160002060009054906101000a900473ffffffffffffffffffffffffffffffffffffffff1673ffffffffffffffffffffffffffffffffffffffff1673ffffffffffffffffffffffffffffffffffffffff168152602001908152602001600020818154811061132557fe5b906000526020600020906005020160000160008154809291906001900391905055505b8080600101915050611189565b5080806001019150506110ee565b50600360008154809291906001900391905055506001915050919050565b60016020528060005260406000206000915054906101000a900473ffffffffffffffffffffffffffffffffffffffff1681565b600260205281600052604060002081815481106113cd57fe5b9060005260206000209060050201600091509150508060000154908060010154908060020154908060030154908060040154905085565b60035481565b600080600061142462015180858161141e57fe5b04611437565b8093508194508295505050509193909250565b600080600080849050600062253d8c62010bd98301019050600062023ab1826004028161146057fe5b059050600460038262023ab102018161147557fe5b0582039150600062164b0960018401610fa0028161148f57fe5b059050601f6004826105b502816114a257fe5b058403019250600061098f84605002816114b857fe5b059050600060508261098f02816114cb57fe5b0585039050600b82816114da57fe5b05945084600c0260028301039150848360318603606402010192508298508197508096505050505050509193909250565b81548183558181111561153857600502816005028360005260206000209182019101611537919061153d565b5b505050565b61158191905b8082111561157d57600080820160009055600182016000905560028201600090556003820160009055600482016000905550600501611543565b5090565b9056fea265627a7a723158208897380a322ea9cc4ba4d20766ef31cc39ac461cc95bd9548075129ed1403c7964736f6c63430005100032",
  "source": "pragma solidity >=0.4.21 <0.7.0;\n\nimport \"./BokkyPooBahsDateTimeLibrary.sol\";\n\ncontract Balance {\n\n\t// NEW\n\tusing BokkyPooBahsDateTimeLibrary for uint;\n\n\tstruct Claim {\n\t\tuint index;\n\t\tuint day;\n\t\tuint month;\n\t\tuint year;\n\t\tuint amount;\n\t}\n\n\t//mapping(address => uint[]) public claims;\n\tmapping(uint => address) public children;\n\t// NEW\n\tmapping(uint => address) public claims;\n\tmapping(address => Claim[]) public childClaims;\n\n\tuint public numClaims;\n\tuint public numChild;\n\n\n\tevent eventClaim (\n\t\tuint indexed _numClaim\n\t);\n\n\tconstructor () public {\n\t\tnumClaims = 0;\n\t}\n\n\tfunction addClaim(uint _tokenClaim) public returns (bool) {\n\n\t\tuint today = now;\n\t\tuint year; \n\t\tuint month; \n\t\tuint day;\n\t\t(year, month, day) = today.timestampToDate();\n\n\t\tchildClaims[msg.sender].push(Claim({index: numClaims, day: day, month: month, year: year, amount: _tokenClaim}));\n\n\t\tclaims[numClaims] = msg.sender;\n\t\tnumClaims ++;\n\n\t\temit eventClaim(numClaims);\n\n\t\treturn true;\n\t}\n\n\tfunction listClaims() public view returns (uint[] memory returnIndexes, uint[] memory returnDays, uint[] memory returnMonths, uint[] memory returnYears, uint[] memory returnAmounts, address[] memory returnAddresses) {\n\t\t\n\t\tuint[] memory claimIndexes = new uint[](numClaims);\n\t\tuint[] memory claimDays = new uint[](numClaims);\n\t\tuint[] memory claimMonths = new uint[](numClaims);\n\t\tuint[] memory claimYears = new uint[](numClaims); \n\t\tuint[] memory claimAmounts = new uint[](numClaims);\n\t\taddress[] memory claimAddresses = new address[](numClaims); \n\n\t\tuint j = 0;\n\t\tuint k = 0;\n\n\t\tfor(uint i = 0; i < numClaims; i++){\n\n\t\t\taddress currentAddress = claims[i];\n\n\t\t\tif(currentAddress == children[0]){\n\t\t\t\tclaimIndexes[i] = childClaims[currentAddress][j].index;\n\t\t\t\tclaimDays[i] = childClaims[currentAddress][j].day;\n\t\t\t\tclaimMonths[i] = childClaims[currentAddress][j].month;\n\t\t\t\tclaimYears[i] = childClaims[currentAddress][j].year;\n\t\t\t\tclaimAmounts[i] = childClaims[currentAddress][j].amount;\n\t\t\t\tclaimAddresses[i] = currentAddress;\n\n\t\t\t\tj++;\n\t\t\t\t\n\t\t\t} else {\n\t\t\t\tclaimIndexes[i] = childClaims[currentAddress][k].index;\n\t\t\t\tclaimDays[i] = childClaims[currentAddress][k].day;\n\t\t\t\tclaimMonths[i] = childClaims[currentAddress][k].month;\n\t\t\t\tclaimYears[i] = childClaims[currentAddress][k].year;\n\t\t\t\tclaimAmounts[i] = childClaims[currentAddress][k].amount;\n\t\t\t\tclaimAddresses[i] = currentAddress;\n\n\t\t\t\tk++;\n\t\t\t}\n\t\t}\n\n\t\treturn(claimIndexes, claimDays, claimMonths, claimYears, claimAmounts, claimAddresses);\n\t}\n\n\tfunction deleteClaim(uint _numClaim) public returns(bool){\n\n\t\taddress childAddress = claims[_numClaim];\n\n\t\t// DELETE CLAIM FROM CHILDCLAIMS\n\t\tfor(uint i = 0; i < childClaims[childAddress].length; i++){\n\n\t\t\tif(childClaims[childAddress][i].index == _numClaim){\n\n\t\t\t\tfor(uint j = _numClaim; j < childClaims[childAddress].length - 1; j++){\n\t\t\t\t\tchildClaims[childAddress][j] = childClaims[childAddress][j+1];\n\t\t\t\t}\n\t\t\t\tchildClaims[childAddress].length--;\n\t\t\t}\t\n\t\t}\n\n\t\t// UPDATE INDEXES IN CLAIMS AND CHILDCLAIMS\n\t\tfor(uint i = _numClaim; i < numClaims - 1; i++){\n\n\t\t\tclaims[i] = claims[i + 1];\n\n\t\t\tfor(uint j = 0; j < childClaims[claims[i + 1]].length; j++){\n\t\t\t\tif(childClaims[claims[i + 1]][j].index == i + 1){\n\t\t\t\t\tchildClaims[claims[i + 1]][j].index--;\n\t\t\t\t}\t\n\t\t\t}\n\t\t}\n\n\t\tnumClaims --;\n\n\t\treturn true;\n\t}\n\n    function addChild(address _childAddress) public {\n    \tchildren[numChild] = _childAddress; \n    \tnumChild ++;\n    }\n\n}",
  "sourcePath": "/Users/alejandrosusillo/Desktop/token_sale/contracts/Balance.sol",
  "compiler": {
    "name": "solc",
    "version": "0.5.16+commit.9c3226ce.Emscripten.clang"
  },
  "schemaVersion": "3.1.0",
  "updatedAt": "2020-06-05T00:16:14.704Z",
  "networkType": "ethereum",
  "devdoc": {
    "methods": {}
  },
  "userdoc": {
    "methods": {}
  }
}