{
  "contractName": "Balance",
  "abi": [
    {
      "inputs": [],
      "payable": false,
      "stateMutability": "nonpayable",
      "type": "constructor"
    },
    {
      "anonymous": false,
      "inputs": [
        {
          "indexed": true,
          "internalType": "uint256",
          "name": "_numClaim",
          "type": "uint256"
        }
      ],
      "name": "Claim",
      "type": "event"
    },
    {
      "constant": true,
      "inputs": [
        {
          "internalType": "uint256",
          "name": "",
          "type": "uint256"
        }
      ],
      "name": "children",
      "outputs": [
        {
          "internalType": "address",
          "name": "",
          "type": "address"
        }
      ],
      "payable": false,
      "stateMutability": "view",
      "type": "function"
    },
    {
      "constant": true,
      "inputs": [
        {
          "internalType": "address",
          "name": "",
          "type": "address"
        },
        {
          "internalType": "uint256",
          "name": "",
          "type": "uint256"
        }
      ],
      "name": "claims",
      "outputs": [
        {
          "internalType": "uint256",
          "name": "",
          "type": "uint256"
        }
      ],
      "payable": false,
      "stateMutability": "view",
      "type": "function"
    },
    {
      "constant": true,
      "inputs": [
        {
          "internalType": "address",
          "name": "",
          "type": "address"
        },
        {
          "internalType": "uint256",
          "name": "",
          "type": "uint256"
        }
      ],
      "name": "family",
      "outputs": [
        {
          "internalType": "address",
          "name": "",
          "type": "address"
        }
      ],
      "payable": false,
      "stateMutability": "view",
      "type": "function"
    },
    {
      "constant": true,
      "inputs": [],
      "name": "numChild",
      "outputs": [
        {
          "internalType": "uint256",
          "name": "",
          "type": "uint256"
        }
      ],
      "payable": false,
      "stateMutability": "view",
      "type": "function"
    },
    {
      "constant": true,
      "inputs": [],
      "name": "numClaims",
      "outputs": [
        {
          "internalType": "uint256",
          "name": "",
          "type": "uint256"
        }
      ],
      "payable": false,
      "stateMutability": "view",
      "type": "function"
    },
    {
      "constant": false,
      "inputs": [
        {
          "internalType": "uint256",
          "name": "_tokenClaim",
          "type": "uint256"
        }
      ],
      "name": "addClaim",
      "outputs": [],
      "payable": false,
      "stateMutability": "nonpayable",
      "type": "function"
    },
    {
      "constant": true,
      "inputs": [
        {
          "internalType": "uint256",
          "name": "_index",
          "type": "uint256"
        }
      ],
      "name": "getClaim",
      "outputs": [
        {
          "internalType": "uint256",
          "name": "",
          "type": "uint256"
        }
      ],
      "payable": false,
      "stateMutability": "view",
      "type": "function"
    },
    {
      "constant": false,
      "inputs": [
        {
          "internalType": "address",
          "name": "_childAddress",
          "type": "address"
        }
      ],
      "name": "addChild",
      "outputs": [],
      "payable": false,
      "stateMutability": "nonpayable",
      "type": "function"
    }
  ],
  "bytecode": "0x608060405234801561001057600080fd5b5061053b806100206000396000f3fe608060405234801561001057600080fd5b50600436106100875760003560e01c8063745c25f61161005b578063745c25f61461019e578063ab541a85146101cc578063bd5f22d71461022e578063fc0fc849146102bc57610087565b8062e7d2e01461008c5780631eee993a146100aa5780635aef2447146100ee5780637002ce4214610130575b600080fd5b6100946102da565b6040518082815260200191505060405180910390f35b6100ec600480360360208110156100c057600080fd5b81019080803573ffffffffffffffffffffffffffffffffffffffff1690602001909291905050506102e0565b005b61011a6004803603602081101561010457600080fd5b8101908080359060200190929190505050610349565b6040518082815260200191505060405180910390f35b61015c6004803603602081101561014657600080fd5b81019080803590602001909291905050506103a7565b604051808273ffffffffffffffffffffffffffffffffffffffff1673ffffffffffffffffffffffffffffffffffffffff16815260200191505060405180910390f35b6101ca600480360360208110156101b457600080fd5b81019080803590602001909291905050506103da565b005b610218600480360360408110156101e257600080fd5b81019080803573ffffffffffffffffffffffffffffffffffffffff16906020019092919080359060200190929190505050610487565b6040518082815260200191505060405180910390f35b61027a6004803603604081101561024457600080fd5b81019080803573ffffffffffffffffffffffffffffffffffffffff169060200190929190803590602001909291905050506104b5565b604051808273ffffffffffffffffffffffffffffffffffffffff1673ffffffffffffffffffffffffffffffffffffffff16815260200191505060405180910390f35b6102c4610500565b6040518082815260200191505060405180910390f35b60045481565b6004600081548092919060010191905055508060026000600454815260200190815260200160002060006101000a81548173ffffffffffffffffffffffffffffffffffffffff021916908373ffffffffffffffffffffffffffffffffffffffff16021790555050565b6000600160003373ffffffffffffffffffffffffffffffffffffffff1673ffffffffffffffffffffffffffffffffffffffff168152602001908152602001600020828154811061039557fe5b90600052602060002001549050919050565b60026020528060005260406000206000915054906101000a900473ffffffffffffffffffffffffffffffffffffffff1681565b600360008154809291906001019190505550600160003373ffffffffffffffffffffffffffffffffffffffff1673ffffffffffffffffffffffffffffffffffffffff1681526020019081526020016000208190806001815401808255809150509060018203906000526020600020016000909192909190915055506003547f7bb2b3c10797baccb6f8c4791f1edd6ca2f0d028ee0eda64b01a9a57e3a653f760405160405180910390a250565b600160205281600052604060002081815481106104a057fe5b90600052602060002001600091509150505481565b600060205281600052604060002081815481106104ce57fe5b906000526020600020016000915091509054906101000a900473ffffffffffffffffffffffffffffffffffffffff1681565b6003548156fea265627a7a72315820c08a2986fa88ac3d4818c333a91d6373659091b191891c3f8313f024ffeef87064736f6c63430005100032",
  "source": "pragma solidity >=0.4.21 <0.7.0;\n\n\n\ncontract Balance {\n\n\n\tmapping(address => address[]) public family;\n\tmapping(address => uint[]) public claims;\n\tmapping(uint => address) public children;\n\n\tuint public numClaims;\n\tuint public numChild;\n\n\n\tevent Claim (\n\t\tuint indexed _numClaim\n\t);\n\n\tconstructor () public {\n\t}\n\n\tfunction addClaim(uint _tokenClaim) public {\n\t\tnumClaims ++;\n\t\tclaims[msg.sender].push(_tokenClaim);\n\t\temit Claim(numClaims);\n\t}\n\n\tfunction getClaim(uint _index) public view returns (uint) {\n        return claims[msg.sender][_index];\n    }\n\n    function addChild(address _childAddress) public {\n    \tnumChild ++;\n    \tchildren[numChild] = _childAddress; \n    }\n\n}",
  "sourcePath": "/Users/alejandrosusillo/Desktop/token_sale/contracts/Balance.sol",
  "compiler": {
    "name": "solc",
    "version": "0.5.16+commit.9c3226ce.Emscripten.clang"
  },
  "schemaVersion": "3.0.23",
  "updatedAt": "2020-05-12T18:57:14.683Z",
  "networkType": "ethereum",
  "devdoc": {
    "methods": {}
  },
  "userdoc": {
    "methods": {}
  }
}