{
  "contractName": "Balance",
  "abi": [
    {
      "inputs": [],
      "payable": false,
      "stateMutability": "nonpayable",
      "type": "constructor"
    },
    {
      "anonymous": false,
      "inputs": [
        {
          "indexed": true,
          "internalType": "uint256",
          "name": "_numClaim",
          "type": "uint256"
        }
      ],
      "name": "Claim",
      "type": "event"
    },
    {
      "constant": true,
      "inputs": [
        {
          "internalType": "uint256",
          "name": "",
          "type": "uint256"
        }
      ],
      "name": "children",
      "outputs": [
        {
          "internalType": "address",
          "name": "",
          "type": "address"
        }
      ],
      "payable": false,
      "stateMutability": "view",
      "type": "function"
    },
    {
      "constant": true,
      "inputs": [
        {
          "internalType": "address",
          "name": "",
          "type": "address"
        },
        {
          "internalType": "uint256",
          "name": "",
          "type": "uint256"
        }
      ],
      "name": "claims",
      "outputs": [
        {
          "internalType": "uint256",
          "name": "",
          "type": "uint256"
        }
      ],
      "payable": false,
      "stateMutability": "view",
      "type": "function"
    },
    {
      "constant": true,
      "inputs": [
        {
          "internalType": "address",
          "name": "",
          "type": "address"
        },
        {
          "internalType": "uint256",
          "name": "",
          "type": "uint256"
        }
      ],
      "name": "family",
      "outputs": [
        {
          "internalType": "address",
          "name": "",
          "type": "address"
        }
      ],
      "payable": false,
      "stateMutability": "view",
      "type": "function"
    },
    {
      "constant": true,
      "inputs": [],
      "name": "numChild",
      "outputs": [
        {
          "internalType": "uint256",
          "name": "",
          "type": "uint256"
        }
      ],
      "payable": false,
      "stateMutability": "view",
      "type": "function"
    },
    {
      "constant": true,
      "inputs": [],
      "name": "numClaims",
      "outputs": [
        {
          "internalType": "uint256",
          "name": "",
          "type": "uint256"
        }
      ],
      "payable": false,
      "stateMutability": "view",
      "type": "function"
    },
    {
      "constant": false,
      "inputs": [
        {
          "internalType": "uint256",
          "name": "_tokenClaim",
          "type": "uint256"
        }
      ],
      "name": "addClaim",
      "outputs": [],
      "payable": false,
      "stateMutability": "nonpayable",
      "type": "function"
    },
    {
      "constant": true,
      "inputs": [
        {
          "internalType": "uint256",
          "name": "_index",
          "type": "uint256"
        }
      ],
      "name": "getClaim",
      "outputs": [
        {
          "internalType": "uint256",
          "name": "",
          "type": "uint256"
        }
      ],
      "payable": false,
      "stateMutability": "view",
      "type": "function"
    },
    {
      "constant": true,
      "inputs": [],
      "name": "getClaimsLength",
      "outputs": [
        {
          "internalType": "uint256",
          "name": "",
          "type": "uint256"
        }
      ],
      "payable": false,
      "stateMutability": "view",
      "type": "function"
    },
    {
      "constant": false,
      "inputs": [
        {
          "internalType": "address",
          "name": "_childAddress",
          "type": "address"
        }
      ],
      "name": "addChild",
      "outputs": [],
      "payable": false,
      "stateMutability": "nonpayable",
      "type": "function"
    }
  ],
  "bytecode": "0x608060405234801561001057600080fd5b506105ae806100206000396000f3fe608060405234801561001057600080fd5b50600436106100925760003560e01c8063745c25f611610066578063745c25f6146101a9578063ab541a85146101d7578063bd5f22d714610239578063cb10a1ce146102c7578063fc0fc849146102e557610092565b8062e7d2e0146100975780631eee993a146100b55780635aef2447146100f95780637002ce421461013b575b600080fd5b61009f610303565b6040518082815260200191505060405180910390f35b6100f7600480360360208110156100cb57600080fd5b81019080803573ffffffffffffffffffffffffffffffffffffffff169060200190929190505050610309565b005b6101256004803603602081101561010f57600080fd5b8101908080359060200190929190505050610372565b6040518082815260200191505060405180910390f35b6101676004803603602081101561015157600080fd5b81019080803590602001909291905050506103d0565b604051808273ffffffffffffffffffffffffffffffffffffffff1673ffffffffffffffffffffffffffffffffffffffff16815260200191505060405180910390f35b6101d5600480360360208110156101bf57600080fd5b8101908080359060200190929190505050610403565b005b610223600480360360408110156101ed57600080fd5b81019080803573ffffffffffffffffffffffffffffffffffffffff169060200190929190803590602001909291905050506104b0565b6040518082815260200191505060405180910390f35b6102856004803603604081101561024f57600080fd5b81019080803573ffffffffffffffffffffffffffffffffffffffff169060200190929190803590602001909291905050506104de565b604051808273ffffffffffffffffffffffffffffffffffffffff1673ffffffffffffffffffffffffffffffffffffffff16815260200191505060405180910390f35b6102cf610529565b6040518082815260200191505060405180910390f35b6102ed610573565b6040518082815260200191505060405180910390f35b60045481565b6004600081548092919060010191905055508060026000600454815260200190815260200160002060006101000a81548173ffffffffffffffffffffffffffffffffffffffff021916908373ffffffffffffffffffffffffffffffffffffffff16021790555050565b6000600160003373ffffffffffffffffffffffffffffffffffffffff1673ffffffffffffffffffffffffffffffffffffffff16815260200190815260200160002082815481106103be57fe5b90600052602060002001549050919050565b60026020528060005260406000206000915054906101000a900473ffffffffffffffffffffffffffffffffffffffff1681565b600360008154809291906001019190505550600160003373ffffffffffffffffffffffffffffffffffffffff1673ffffffffffffffffffffffffffffffffffffffff1681526020019081526020016000208190806001815401808255809150509060018203906000526020600020016000909192909190915055506003547f7bb2b3c10797baccb6f8c4791f1edd6ca2f0d028ee0eda64b01a9a57e3a653f760405160405180910390a250565b600160205281600052604060002081815481106104c957fe5b90600052602060002001600091509150505481565b600060205281600052604060002081815481106104f757fe5b906000526020600020016000915091509054906101000a900473ffffffffffffffffffffffffffffffffffffffff1681565b6000600160003373ffffffffffffffffffffffffffffffffffffffff1673ffffffffffffffffffffffffffffffffffffffff16815260200190815260200160002080549050905090565b6003548156fea265627a7a72315820cbad92efe9d8744c1dff88f0532178fe01962c5d7733646ae8529d87902a84b664736f6c63430005100032",
  "source": "pragma solidity >=0.4.21 <0.7.0;\n\n\n\ncontract Balance {\n\n\n\tmapping(address => address[]) public family;\n\tmapping(address => uint[]) public claims;\n\tmapping(uint => address) public children;\n\n\tuint public numClaims;\n\tuint public numChild;\n\n\n\tevent Claim (\n\t\tuint indexed _numClaim\n\t);\n\n\tconstructor () public {\n\t}\n\n\tfunction addClaim(uint _tokenClaim) public {\n\t\tnumClaims ++;\n\t\tclaims[msg.sender].push(_tokenClaim);\n\t\temit Claim(numClaims);\n\t}\n\n\tfunction getClaim(uint _index) public view returns (uint) {\n        return claims[msg.sender][_index];\n    }\n\n    function getClaimsLength() public view returns (uint) {\n        return claims[msg.sender].length;\n    }\n\n    function addChild(address _childAddress) public {\n    \tnumChild ++;\n    \tchildren[numChild] = _childAddress; \n    }\n\n}",
  "sourcePath": "/Users/alejandrosusillo/Desktop/token_sale/contracts/Balance.sol",
  "compiler": {
    "name": "solc",
    "version": "0.5.16+commit.9c3226ce.Emscripten.clang"
  },
  "schemaVersion": "3.0.23",
  "updatedAt": "2020-05-14T23:10:33.927Z",
  "networkType": "ethereum",
  "devdoc": {
    "methods": {}
  },
  "userdoc": {
    "methods": {}
  }
}