{
  "contractName": "Balance",
  "abi": [
    {
      "inputs": [],
      "payable": false,
      "stateMutability": "nonpayable",
      "type": "constructor"
    },
    {
      "anonymous": false,
      "inputs": [
        {
          "indexed": true,
          "internalType": "uint256",
          "name": "_numClaim",
          "type": "uint256"
        }
      ],
      "name": "eventClaim",
      "type": "event"
    },
    {
      "constant": true,
      "inputs": [
        {
          "internalType": "address",
          "name": "",
          "type": "address"
        },
        {
          "internalType": "uint256",
          "name": "",
          "type": "uint256"
        }
      ],
      "name": "childClaims",
      "outputs": [
        {
          "internalType": "uint256",
          "name": "index",
          "type": "uint256"
        },
        {
          "internalType": "uint256",
          "name": "day",
          "type": "uint256"
        },
        {
          "internalType": "uint256",
          "name": "month",
          "type": "uint256"
        },
        {
          "internalType": "uint256",
          "name": "year",
          "type": "uint256"
        },
        {
          "internalType": "uint256",
          "name": "amount",
          "type": "uint256"
        }
      ],
      "payable": false,
      "stateMutability": "view",
      "type": "function"
    },
    {
      "constant": true,
      "inputs": [
        {
          "internalType": "uint256",
          "name": "",
          "type": "uint256"
        }
      ],
      "name": "children",
      "outputs": [
        {
          "internalType": "address",
          "name": "",
          "type": "address"
        }
      ],
      "payable": false,
      "stateMutability": "view",
      "type": "function"
    },
    {
      "constant": true,
      "inputs": [
        {
          "internalType": "uint256",
          "name": "",
          "type": "uint256"
        }
      ],
      "name": "claims",
      "outputs": [
        {
          "internalType": "address",
          "name": "",
          "type": "address"
        }
      ],
      "payable": false,
      "stateMutability": "view",
      "type": "function"
    },
    {
      "constant": true,
      "inputs": [],
      "name": "numChild",
      "outputs": [
        {
          "internalType": "uint256",
          "name": "",
          "type": "uint256"
        }
      ],
      "payable": false,
      "stateMutability": "view",
      "type": "function"
    },
    {
      "constant": true,
      "inputs": [],
      "name": "numClaims",
      "outputs": [
        {
          "internalType": "uint256",
          "name": "",
          "type": "uint256"
        }
      ],
      "payable": false,
      "stateMutability": "view",
      "type": "function"
    },
    {
      "constant": false,
      "inputs": [
        {
          "internalType": "uint256",
          "name": "_tokenClaim",
          "type": "uint256"
        }
      ],
      "name": "addClaim",
      "outputs": [
        {
          "internalType": "bool",
          "name": "",
          "type": "bool"
        }
      ],
      "payable": false,
      "stateMutability": "nonpayable",
      "type": "function"
    },
    {
      "constant": true,
      "inputs": [],
      "name": "listClaims",
      "outputs": [
        {
          "internalType": "uint256[]",
          "name": "returnIndexes",
          "type": "uint256[]"
        },
        {
          "internalType": "uint256[]",
          "name": "returnDays",
          "type": "uint256[]"
        },
        {
          "internalType": "uint256[]",
          "name": "returnMonths",
          "type": "uint256[]"
        },
        {
          "internalType": "uint256[]",
          "name": "returnYears",
          "type": "uint256[]"
        },
        {
          "internalType": "uint256[]",
          "name": "returnAmounts",
          "type": "uint256[]"
        }
      ],
      "payable": false,
      "stateMutability": "view",
      "type": "function"
    },
    {
      "constant": false,
      "inputs": [
        {
          "internalType": "uint256",
          "name": "_numClaim",
          "type": "uint256"
        }
      ],
      "name": "deleteClaim",
      "outputs": [],
      "payable": false,
      "stateMutability": "nonpayable",
      "type": "function"
    },
    {
      "constant": false,
      "inputs": [
        {
          "internalType": "address",
          "name": "_childAddress",
          "type": "address"
        }
      ],
      "name": "addChild",
      "outputs": [],
      "payable": false,
      "stateMutability": "nonpayable",
      "type": "function"
    }
  ],
  "bytecode": "0x608060405234801561001057600080fd5b506000600381905550610fef806100286000396000f3fe608060405234801561001057600080fd5b50600436106100925760003560e01c8063745c25f611610066578063745c25f6146102e657806382537c5d1461032c578063a888c2cd1461035a578063d0f938e9146103c8578063fc0fc8491461044657610092565b8062e7d2e0146100975780631eee993a146100b55780633ac6f3db146100f95780637002ce4214610278575b600080fd5b61009f610464565b6040518082815260200191505060405180910390f35b6100f7600480360360208110156100cb57600080fd5b81019080803573ffffffffffffffffffffffffffffffffffffffff16906020019092919050505061046a565b005b6101016104d2565b60405180806020018060200180602001806020018060200186810386528b818151815260200191508051906020019060200280838360005b83811015610154578082015181840152602081019050610139565b5050505090500186810385528a818151815260200191508051906020019060200280838360005b8381101561019657808201518184015260208101905061017b565b50505050905001868103845289818151815260200191508051906020019060200280838360005b838110156101d85780820151818401526020810190506101bd565b50505050905001868103835288818151815260200191508051906020019060200280838360005b8381101561021a5780820151818401526020810190506101ff565b50505050905001868103825287818151815260200191508051906020019060200280838360005b8381101561025c578082015181840152602081019050610241565b505050509050019a505050505050505050505060405180910390f35b6102a46004803603602081101561028e57600080fd5b8101908080359060200190929190505050610963565b604051808273ffffffffffffffffffffffffffffffffffffffff1673ffffffffffffffffffffffffffffffffffffffff16815260200191505060405180910390f35b610312600480360360208110156102fc57600080fd5b8101908080359060200190929190505050610996565b604051808215151515815260200191505060405180910390f35b6103586004803603602081101561034257600080fd5b8101908080359060200190929190505050610b20565b005b6103866004803603602081101561037057600080fd5b8101908080359060200190929190505050610db7565b604051808273ffffffffffffffffffffffffffffffffffffffff1673ffffffffffffffffffffffffffffffffffffffff16815260200191505060405180910390f35b610414600480360360408110156103de57600080fd5b81019080803573ffffffffffffffffffffffffffffffffffffffff16906020019092919080359060200190929190505050610dea565b604051808681526020018581526020018481526020018381526020018281526020019550505050505060405180910390f35b61044e610e3a565b6040518082815260200191505060405180910390f35b60045481565b60046000815480929190600101919050555080600080600454815260200190815260200160002060006101000a81548173ffffffffffffffffffffffffffffffffffffffff021916908373ffffffffffffffffffffffffffffffffffffffff16021790555050565b60608060608060608060035460405190808252806020026020018201604052801561050c5781602001602082028038833980820191505090505b50905060606003546040519080825280602002602001820160405280156105425781602001602082028038833980820191505090505b50905060606003546040519080825280602002602001820160405280156105785781602001602082028038833980820191505090505b50905060606003546040519080825280602002602001820160405280156105ae5781602001602082028038833980820191505090505b50905060606003546040519080825280602002602001820160405280156105e45781602001602082028038833980820191505090505b50905060008090505b60035481101561094757600260006001600084815260200190815260200160002060009054906101000a900473ffffffffffffffffffffffffffffffffffffffff1673ffffffffffffffffffffffffffffffffffffffff1673ffffffffffffffffffffffffffffffffffffffff168152602001908152602001600020818154811061067457fe5b90600052602060002090600502016000015486828151811061069257fe5b602002602001018181525050600260006001600084815260200190815260200160002060009054906101000a900473ffffffffffffffffffffffffffffffffffffffff1673ffffffffffffffffffffffffffffffffffffffff1673ffffffffffffffffffffffffffffffffffffffff168152602001908152602001600020818154811061071b57fe5b90600052602060002090600502016001015485828151811061073957fe5b602002602001018181525050600260006001600084815260200190815260200160002060009054906101000a900473ffffffffffffffffffffffffffffffffffffffff1673ffffffffffffffffffffffffffffffffffffffff1673ffffffffffffffffffffffffffffffffffffffff16815260200190815260200160002081815481106107c257fe5b9060005260206000209060050201600201548482815181106107e057fe5b602002602001018181525050600260006001600084815260200190815260200160002060009054906101000a900473ffffffffffffffffffffffffffffffffffffffff1673ffffffffffffffffffffffffffffffffffffffff1673ffffffffffffffffffffffffffffffffffffffff168152602001908152602001600020818154811061086957fe5b90600052602060002090600502016003015483828151811061088757fe5b602002602001018181525050600260006001600084815260200190815260200160002060009054906101000a900473ffffffffffffffffffffffffffffffffffffffff1673ffffffffffffffffffffffffffffffffffffffff1673ffffffffffffffffffffffffffffffffffffffff168152602001908152602001600020818154811061091057fe5b90600052602060002090600502016004015482828151811061092e57fe5b60200260200101818152505080806001019150506105ed565b5084848484849950995099509950995050505050509091929394565b60006020528060005260406000206000915054906101000a900473ffffffffffffffffffffffffffffffffffffffff1681565b60008042905060008060006109aa84610e40565b809350819450829550505050600260003373ffffffffffffffffffffffffffffffffffffffff1673ffffffffffffffffffffffffffffffffffffffff1681526020019081526020016000206040518060a001604052806003548152602001838152602001848152602001858152602001888152509080600181540180825580915050906001820390600052602060002090600502016000909192909190915060008201518160000155602082015181600101556040820151816002015560608201518160030155608082015181600401555050503360016000600354815260200190815260200160002060006101000a81548173ffffffffffffffffffffffffffffffffffffffff021916908373ffffffffffffffffffffffffffffffffffffffff1602179055506003600081548092919060010191905055506003547f4b7553ab86a36868c9bbf5bc6022aae785e60765ea158474b7d22fe4af282c4c60405160405180910390a26001945050505050919050565b60006001600083815260200190815260200160002060009054906101000a900473ffffffffffffffffffffffffffffffffffffffff16905060008090505b600260008373ffffffffffffffffffffffffffffffffffffffff1673ffffffffffffffffffffffffffffffffffffffff16815260200190815260200160002080549050811015610db25782600260008473ffffffffffffffffffffffffffffffffffffffff1673ffffffffffffffffffffffffffffffffffffffff1681526020019081526020016000208281548110610bf357fe5b9060005260206000209060050201600001541415610da55760008390505b600260008473ffffffffffffffffffffffffffffffffffffffff1673ffffffffffffffffffffffffffffffffffffffff16815260200190815260200160002080549050811015610d5057600260008473ffffffffffffffffffffffffffffffffffffffff1673ffffffffffffffffffffffffffffffffffffffff1681526020019081526020016000206001820181548110610ca857fe5b9060005260206000209060050201600260008573ffffffffffffffffffffffffffffffffffffffff1673ffffffffffffffffffffffffffffffffffffffff1681526020019081526020016000208281548110610d0057fe5b906000526020600020906005020160008201548160000155600182015481600101556002820154816002015560038201548160030155600482015481600401559050508080600101915050610c11565b50600260008373ffffffffffffffffffffffffffffffffffffffff1673ffffffffffffffffffffffffffffffffffffffff168152602001908152602001600020805480919060019003610da39190610f41565b505b8080600101915050610b5e565b505050565b60016020528060005260406000206000915054906101000a900473ffffffffffffffffffffffffffffffffffffffff1681565b60026020528160005260406000208181548110610e0357fe5b9060005260206000209060050201600091509150508060000154908060010154908060020154908060030154908060040154905085565b60035481565b6000806000610e5a620151808581610e5457fe5b04610e6d565b8093508194508295505050509193909250565b600080600080849050600062253d8c62010bd98301019050600062023ab18260040281610e9657fe5b059050600460038262023ab1020181610eab57fe5b0582039150600062164b0960018401610fa00281610ec557fe5b059050601f6004826105b50281610ed857fe5b058403019250600061098f8460500281610eee57fe5b059050600060508261098f0281610f0157fe5b0585039050600b8281610f1057fe5b05945084600c0260028301039150848360318603606402010192508298508197508096505050505050509193909250565b815481835581811115610f6e57600502816005028360005260206000209182019101610f6d9190610f73565b5b505050565b610fb791905b80821115610fb357600080820160009055600182016000905560028201600090556003820160009055600482016000905550600501610f79565b5090565b9056fea265627a7a7231582079914e40087e968800881b26caf95e14e283cfb5a02fd622dd5b460fc97050d964736f6c63430005100032",
  "source": "pragma solidity >=0.4.21 <0.7.0;\n\nimport \"./BokkyPooBahsDateTimeLibrary.sol\";\n\ncontract Balance {\n\n\t// NEW\n\tusing BokkyPooBahsDateTimeLibrary for uint;\n\n\tstruct Claim {\n\t\tuint index;\n\t\tuint day;\n\t\tuint month;\n\t\tuint year;\n\t\tuint amount;\n\t}\n\n\t//mapping(address => uint[]) public claims;\n\tmapping(uint => address) public children;\n\t// NEW\n\tmapping(uint => address) public claims;\n\tmapping(address => Claim[]) public childClaims;\n\n\tuint public numClaims;\n\tuint public numChild;\n\n\n\tevent eventClaim (\n\t\tuint indexed _numClaim\n\t);\n\n\tconstructor () public {\n\t\tnumClaims = 0;\n\t}\n\n\tfunction addClaim(uint _tokenClaim) public returns (bool) {\n\n\t\tuint today = now;\n\t\tuint year; \n\t\tuint month; \n\t\tuint day;\n\t\t(year, month, day) = today.timestampToDate();\n\n\t\tchildClaims[msg.sender].push(Claim({index: numClaims, day: day, month: month, year: year, amount: _tokenClaim}));\n\n\t\tclaims[numClaims] = msg.sender;\n\t\tnumClaims ++;\n\n\t\temit eventClaim(numClaims);\n\n\t\treturn true;\n\t\t/*numClaims ++;\n\t\tclaims[msg.sender].push(_tokenClaim);\n\t\temit Claim(numClaims);*/\n\t}\n\n\tfunction listClaims() public view returns (uint[] memory returnIndexes, uint[] memory returnDays, uint[] memory returnMonths, uint[] memory returnYears, uint[] memory returnAmounts) {\n\t\t\n\t\tuint[] memory claimIndexes = new uint[](numClaims);\n\t\tuint[] memory claimDays = new uint[](numClaims);\n\t\tuint[] memory claimMonths = new uint[](numClaims);\n\t\tuint[] memory claimYears = new uint[](numClaims); \n\t\tuint[] memory claimAmounts = new uint[](numClaims); \n\n\t\tfor(uint i = 0; i < numClaims; i++){\n\t\t\tclaimIndexes[i] = childClaims[claims[i]][i].index;\n\t\t\tclaimDays[i] = childClaims[claims[i]][i].day;\n\t\t\tclaimMonths[i] = childClaims[claims[i]][i].month;\n\t\t\tclaimYears[i] = childClaims[claims[i]][i].year;\n\t\t\tclaimAmounts[i] = childClaims[claims[i]][i].amount;\n\t\t}\n\n\t\treturn(claimIndexes, claimDays, claimMonths, claimYears, claimAmounts);\n\t}\n\n\tfunction deleteClaim(uint _numClaim) public {\n\n\t\taddress childAddress = claims[_numClaim];\n\n\t\t// DELETE CLAIM FROM CHILDCLAIMS\n\t\tfor(uint i = 0; i < childClaims[childAddress].length; i++){\n\n\t\t\tif(childClaims[childAddress][i].index == _numClaim){\n\n\t\t\t\tfor(uint j = _numClaim; j < childClaims[childAddress].length; j++){\n\t\t\t\t\tchildClaims[childAddress][j] = childClaims[childAddress][j+1];\n\t\t\t\t}\n\t\t\t\tchildClaims[childAddress].length--;\n\t\t\t}\t\n\t\t}\n\n\n\t\t// UPDATE INDEXES IN CLAIMS AND CHILDCLAIMS\n\t\t/*for(uint i = _numClaim; i < numClaims - 1; i++){\n\n\t\t\tclaims[i] = claims[i + 1];\n\n\t\t\tfor(uint j = 0; j < childClaims[claims[i + 1]].length; j++){\n\t\t\t\tif(childClaims[claims[i + 1]][j].index == i + 1){\n\t\t\t\t\tchildClaims[claims[i + 1]][j].index--;\n\t\t\t\t}\t\n\t\t\t}\n\t\t}\n\n\t\tnumClaims --;*/\n\t}\n\n\t/*function getClaim(uint _index) public view returns (uint) {\n        return claims[msg.sender][_index];\n    }\n\n    function getClaimsLength() public view returns (uint) {\n        return claims[msg.sender].length;\n    }*/\n\n    function addChild(address _childAddress) public {\n    \tnumChild ++;\n    \tchildren[numChild] = _childAddress; \n    }\n\n}",
  "sourcePath": "/Users/alejandrosusillo/Desktop/token_sale/contracts/Balance.sol",
  "compiler": {
    "name": "solc",
    "version": "0.5.16+commit.9c3226ce.Emscripten.clang"
  },
  "schemaVersion": "3.0.23",
  "updatedAt": "2020-05-15T16:55:43.148Z",
  "networkType": "ethereum",
  "devdoc": {
    "methods": {}
  },
  "userdoc": {
    "methods": {}
  }
}