{
  "contractName": "DappTokenSale",
  "abi": [
    {
      "inputs": [
        {
          "internalType": "contract DappToken",
          "name": "_tokenContract",
          "type": "address"
        },
        {
          "internalType": "uint256",
          "name": "_tokenPrice",
          "type": "uint256"
        }
      ],
      "payable": false,
      "stateMutability": "nonpayable",
      "type": "constructor"
    },
    {
      "anonymous": false,
      "inputs": [
        {
          "indexed": false,
          "internalType": "address",
          "name": "_buyer",
          "type": "address"
        },
        {
          "indexed": false,
          "internalType": "uint256",
          "name": "_amount",
          "type": "uint256"
        }
      ],
      "name": "Sell",
      "type": "event"
    },
    {
      "constant": true,
      "inputs": [],
      "name": "tokenContract",
      "outputs": [
        {
          "internalType": "contract DappToken",
          "name": "",
          "type": "address"
        }
      ],
      "payable": false,
      "stateMutability": "view",
      "type": "function"
    },
    {
      "constant": true,
      "inputs": [],
      "name": "tokenPrice",
      "outputs": [
        {
          "internalType": "uint256",
          "name": "",
          "type": "uint256"
        }
      ],
      "payable": false,
      "stateMutability": "view",
      "type": "function"
    },
    {
      "constant": true,
      "inputs": [],
      "name": "tokenSold",
      "outputs": [
        {
          "internalType": "uint256",
          "name": "",
          "type": "uint256"
        }
      ],
      "payable": false,
      "stateMutability": "view",
      "type": "function"
    },
    {
      "constant": false,
      "inputs": [
        {
          "internalType": "uint256",
          "name": "_numberOfTokens",
          "type": "uint256"
        }
      ],
      "name": "buyTokens",
      "outputs": [],
      "payable": true,
      "stateMutability": "payable",
      "type": "function"
    }
  ],
  "bytecode": "0x608060405234801561001057600080fd5b506040516105013803806105018339818101604052604081101561003357600080fd5b810190808051906020019092919080519060200190929190505050336000806101000a81548173ffffffffffffffffffffffffffffffffffffffff021916908373ffffffffffffffffffffffffffffffffffffffff16021790555081600160006101000a81548173ffffffffffffffffffffffffffffffffffffffff021916908373ffffffffffffffffffffffffffffffffffffffff16021790555080600281905550505061041a806100e76000396000f3fe60806040526004361061003f5760003560e01c80633610724e14610044578063519ee19e1461007257806355a373d61461009d5780637ff9b596146100f4575b600080fd5b6100706004803603602081101561005a57600080fd5b810190808035906020019092919050505061011f565b005b34801561007e57600080fd5b50610087610387565b6040518082815260200191505060405180910390f35b3480156100a957600080fd5b506100b261038d565b604051808273ffffffffffffffffffffffffffffffffffffffff1673ffffffffffffffffffffffffffffffffffffffff16815260200191505060405180910390f35b34801561010057600080fd5b506101096103b3565b6040518082815260200191505060405180910390f35b61012b816002546103b9565b341461013657600080fd5b80600160009054906101000a900473ffffffffffffffffffffffffffffffffffffffff1673ffffffffffffffffffffffffffffffffffffffff166370a08231306040518263ffffffff1660e01b8152600401808273ffffffffffffffffffffffffffffffffffffffff1673ffffffffffffffffffffffffffffffffffffffff16815260200191505060206040518083038186803b1580156101d657600080fd5b505afa1580156101ea573d6000803e3d6000fd5b505050506040513d602081101561020057600080fd5b8101908080519060200190929190505050101561021c57600080fd5b600160009054906101000a900473ffffffffffffffffffffffffffffffffffffffff1673ffffffffffffffffffffffffffffffffffffffff1663a9059cbb33836040518363ffffffff1660e01b8152600401808373ffffffffffffffffffffffffffffffffffffffff1673ffffffffffffffffffffffffffffffffffffffff16815260200182815260200192505050602060405180830381600087803b1580156102c557600080fd5b505af11580156102d9573d6000803e3d6000fd5b505050506040513d60208110156102ef57600080fd5b810190808051906020019092919050505061030957600080fd5b806003600082825401925050819055507f5e5e995ce3133561afceaa51a9a154d5db228cd7525d34df5185582c18d3df093382604051808373ffffffffffffffffffffffffffffffffffffffff1673ffffffffffffffffffffffffffffffffffffffff1681526020018281526020019250505060405180910390a150565b60035481565b600160009054906101000a900473ffffffffffffffffffffffffffffffffffffffff1681565b60025481565b6000808214806103d657508282838502925082816103d357fe5b04145b6103df57600080fd5b9291505056fea265627a7a72315820f08a2dac65c1d888993d75f1e6dae4cd881af7832d6c944e75d44f35811d3af464736f6c63430005100032",
  "source": "pragma solidity >=0.4.21 <0.7.0;\n\nimport \"./DappToken.sol\";\n\ncontract DappTokenSale{\n\n\t// its gonna be written into the blockchain\n\taddress admin;\n\tDappToken public tokenContract;\n\tuint256 public tokenPrice;\n\tuint256 public tokenSold;\n\n\tevent Sell(\n\t\taddress _buyer,\n\t\tuint256 _amount\n\t);\n\n\tconstructor (DappToken _tokenContract, uint256 _tokenPrice) public {\n\t\tadmin = msg.sender;\n\t\ttokenContract = _tokenContract;\n\t\ttokenPrice = _tokenPrice;\n\t}\n\n\tfunction multiply(uint x, uint y) internal pure returns(uint z){\n\t\trequire(y == 0 || (z = x * y) / y == x);\n\t}\n\n\tfunction buyTokens(uint256 _numberOfTokens) public payable{\n\t\t\n\t\trequire(msg.value == multiply(_numberOfTokens, tokenPrice));\n\t\trequire(tokenContract.balanceOf(address(this)) >= _numberOfTokens);\n\t\trequire (tokenContract.transfer(msg.sender, _numberOfTokens));\n\t\t\n\t\ttokenSold += _numberOfTokens;\n\t\temit Sell(msg.sender, _numberOfTokens);\n\t}\n}",
  "sourcePath": "/Users/alejandrosusillo/Desktop/token_sale/contracts/DappTokenSale.sol",
  "compiler": {
    "name": "solc",
    "version": "0.5.16+commit.9c3226ce.Emscripten.clang"
  },
  "schemaVersion": "3.0.23",
  "updatedAt": "2020-03-25T00:19:35.565Z",
  "devdoc": {
    "methods": {}
  },
  "userdoc": {
    "methods": {}
  }
}