{
  "contractName": "DappToken",
  "abi": [
    {
      "inputs": [],
      "payable": false,
      "stateMutability": "nonpayable",
      "type": "constructor"
    },
    {
      "constant": true,
      "inputs": [],
      "name": "totalSupply",
      "outputs": [
        {
          "internalType": "uint256",
          "name": "",
          "type": "uint256"
        }
      ],
      "payable": false,
      "stateMutability": "view",
      "type": "function"
    }
  ],
  "bytecode": "0x6080604052348015600f57600080fd5b50620f42406000819055506084806100286000396000f3fe6080604052348015600f57600080fd5b506004361060285760003560e01c806318160ddd14602d575b600080fd5b60336049565b6040518082815260200191505060405180910390f35b6000548156fea265627a7a72315820ebc098bbe9bde393f28e600e4ce97675f0cc14b9f0ef8d6d3eb9ff07a423b1d064736f6c63430005100032",
  "source": "pragma solidity >=0.4.21 <0.7.0;\n\n\n\ncontract DappToken {\n\n\t// Constructor (set the number of tokens we need)\n\t// Set the total number of tokens\n\t// Read the total number of tokens\n\tuint256 public totalSupply;\n\n\tconstructor () public {\n\t\ttotalSupply = 1000000;\n\t}\n\n\n\n\n\n} ",
  "sourcePath": "/Users/alejandrosusillo/Desktop/token_sale/contracts/DappToken.sol",
  "compiler": {
    "name": "solc",
    "version": "0.5.16+commit.9c3226ce.Emscripten.clang"
  },
  "schemaVersion": "3.0.23",
  "updatedAt": "2020-03-22T23:21:32.552Z",
  "networkType": "ethereum",
  "devdoc": {
    "methods": {}
  },
  "userdoc": {
    "methods": {}
  }
}