{
  "contractName": "DappTokenSale",
  "abi": [
    {
      "inputs": [
        {
          "internalType": "contract DappToken",
          "name": "_tokenContract",
          "type": "address"
        },
        {
          "internalType": "uint256",
          "name": "_tokenPrice",
          "type": "uint256"
        }
      ],
      "payable": false,
      "stateMutability": "nonpayable",
      "type": "constructor"
    },
    {
      "anonymous": false,
      "inputs": [
        {
          "indexed": false,
          "internalType": "address",
          "name": "_buyer",
          "type": "address"
        },
        {
          "indexed": false,
          "internalType": "uint256",
          "name": "_amount",
          "type": "uint256"
        }
      ],
      "name": "Sell",
      "type": "event"
    },
    {
      "constant": true,
      "inputs": [],
      "name": "tokenContract",
      "outputs": [
        {
          "internalType": "contract DappToken",
          "name": "",
          "type": "address"
        }
      ],
      "payable": false,
      "stateMutability": "view",
      "type": "function"
    },
    {
      "constant": true,
      "inputs": [],
      "name": "tokenPrice",
      "outputs": [
        {
          "internalType": "uint256",
          "name": "",
          "type": "uint256"
        }
      ],
      "payable": false,
      "stateMutability": "view",
      "type": "function"
    },
    {
      "constant": true,
      "inputs": [],
      "name": "tokenSold",
      "outputs": [
        {
          "internalType": "uint256",
          "name": "",
          "type": "uint256"
        }
      ],
      "payable": false,
      "stateMutability": "view",
      "type": "function"
    },
    {
      "constant": false,
      "inputs": [
        {
          "internalType": "uint256",
          "name": "_numberOfTokens",
          "type": "uint256"
        }
      ],
      "name": "buyTokens",
      "outputs": [],
      "payable": true,
      "stateMutability": "payable",
      "type": "function"
    },
    {
      "constant": false,
      "inputs": [],
      "name": "endSale",
      "outputs": [],
      "payable": false,
      "stateMutability": "nonpayable",
      "type": "function"
    }
  ],
  "bytecode": "0x608060405234801561001057600080fd5b5060405161079d38038061079d8339818101604052604081101561003357600080fd5b810190808051906020019092919080519060200190929190505050336000806101000a81548173ffffffffffffffffffffffffffffffffffffffff021916908373ffffffffffffffffffffffffffffffffffffffff16021790555081600160006101000a81548173ffffffffffffffffffffffffffffffffffffffff021916908373ffffffffffffffffffffffffffffffffffffffff1602179055508060028190555050506106b6806100e76000396000f3fe60806040526004361061004a5760003560e01c80633610724e1461004f578063380d831b1461007d578063519ee19e1461009457806355a373d6146100bf5780637ff9b59614610116575b600080fd5b61007b6004803603602081101561006557600080fd5b8101908080359060200190929190505050610141565b005b34801561008957600080fd5b506100926103a9565b005b3480156100a057600080fd5b506100a9610623565b6040518082815260200191505060405180910390f35b3480156100cb57600080fd5b506100d4610629565b604051808273ffffffffffffffffffffffffffffffffffffffff1673ffffffffffffffffffffffffffffffffffffffff16815260200191505060405180910390f35b34801561012257600080fd5b5061012b61064f565b6040518082815260200191505060405180910390f35b61014d81600254610655565b341461015857600080fd5b80600160009054906101000a900473ffffffffffffffffffffffffffffffffffffffff1673ffffffffffffffffffffffffffffffffffffffff166370a08231306040518263ffffffff1660e01b8152600401808273ffffffffffffffffffffffffffffffffffffffff1673ffffffffffffffffffffffffffffffffffffffff16815260200191505060206040518083038186803b1580156101f857600080fd5b505afa15801561020c573d6000803e3d6000fd5b505050506040513d602081101561022257600080fd5b8101908080519060200190929190505050101561023e57600080fd5b600160009054906101000a900473ffffffffffffffffffffffffffffffffffffffff1673ffffffffffffffffffffffffffffffffffffffff1663a9059cbb33836040518363ffffffff1660e01b8152600401808373ffffffffffffffffffffffffffffffffffffffff1673ffffffffffffffffffffffffffffffffffffffff16815260200182815260200192505050602060405180830381600087803b1580156102e757600080fd5b505af11580156102fb573d6000803e3d6000fd5b505050506040513d602081101561031157600080fd5b810190808051906020019092919050505061032b57600080fd5b806003600082825401925050819055507f5e5e995ce3133561afceaa51a9a154d5db228cd7525d34df5185582c18d3df093382604051808373ffffffffffffffffffffffffffffffffffffffff1673ffffffffffffffffffffffffffffffffffffffff1681526020018281526020019250505060405180910390a150565b6000809054906101000a900473ffffffffffffffffffffffffffffffffffffffff1673ffffffffffffffffffffffffffffffffffffffff163373ffffffffffffffffffffffffffffffffffffffff161461040257600080fd5b600160009054906101000a900473ffffffffffffffffffffffffffffffffffffffff1673ffffffffffffffffffffffffffffffffffffffff1663a9059cbb6000809054906101000a900473ffffffffffffffffffffffffffffffffffffffff16600160009054906101000a900473ffffffffffffffffffffffffffffffffffffffff1673ffffffffffffffffffffffffffffffffffffffff166370a08231306040518263ffffffff1660e01b8152600401808273ffffffffffffffffffffffffffffffffffffffff1673ffffffffffffffffffffffffffffffffffffffff16815260200191505060206040518083038186803b15801561050157600080fd5b505afa158015610515573d6000803e3d6000fd5b505050506040513d602081101561052b57600080fd5b81019080805190602001909291905050506040518363ffffffff1660e01b8152600401808373ffffffffffffffffffffffffffffffffffffffff1673ffffffffffffffffffffffffffffffffffffffff16815260200182815260200192505050602060405180830381600087803b1580156105a557600080fd5b505af11580156105b9573d6000803e3d6000fd5b505050506040513d60208110156105cf57600080fd5b81019080805190602001909291905050506105e957600080fd5b6000809054906101000a900473ffffffffffffffffffffffffffffffffffffffff1673ffffffffffffffffffffffffffffffffffffffff16ff5b60035481565b600160009054906101000a900473ffffffffffffffffffffffffffffffffffffffff1681565b60025481565b600080821480610672575082828385029250828161066f57fe5b04145b61067b57600080fd5b9291505056fea265627a7a7231582023c901debf172b0367e3d9bc9bdec069c6f4609be0fb6bf0b4df0e3d081d00a464736f6c63430005100032",
  "source": "pragma solidity >=0.4.21 <0.7.0;\n\nimport \"./DappToken.sol\";\n\ncontract DappTokenSale{\n\n\t// its gonna be written into the blockchain\n\taddress payable admin;\n\tDappToken public tokenContract;\n\tuint256 public tokenPrice;\n\tuint256 public tokenSold;\n\n\tevent Sell(\n\t\taddress _buyer,\n\t\tuint256 _amount\n\t);\n\t\n\tconstructor (DappToken _tokenContract, uint256 _tokenPrice) public {\n\t\tadmin = msg.sender;\n\t\ttokenContract = _tokenContract;\n\t\ttokenPrice = _tokenPrice;\n\t}\n\n\tfunction multiply(uint x, uint y) internal pure returns(uint z){\n\t\trequire(y == 0 || (z = x * y) / y == x);\n\t}\n\n\tfunction buyTokens(uint256 _numberOfTokens) public payable{\n\t\trequire(msg.value == multiply(_numberOfTokens, tokenPrice));\n\t\trequire(tokenContract.balanceOf(address(this)) >= _numberOfTokens);\n\t\trequire (tokenContract.transfer(msg.sender, _numberOfTokens));\n\t\t\n\t\ttokenSold += _numberOfTokens;\n\n\t\temit Sell(msg.sender, _numberOfTokens);\n\t}\n\n\tfunction endSale() public {\n\t\trequire(msg.sender == admin);\n\t\trequire(tokenContract.transfer(admin, tokenContract.balanceOf(address(this))));\n\t\tselfdestruct(admin);\n\t}\n\n\n\t// AUXILIARY FUNCTIONS\n\n\t/*function parseAddr(string memory _a) internal pure returns (address _parsedAddress) {\n\t    bytes memory tmp = bytes(_a);\n\t    uint160 iaddr = 0;\n\t    uint160 b1;\n\t    uint160 b2;\n\t    for (uint i = 2; i < 2 + 2 * 20; i += 2) {\n\t        iaddr *= 256;\n\t        b1 = uint160(uint8(tmp[i]));\n\t        b2 = uint160(uint8(tmp[i + 1]));\n\t        if ((b1 >= 97) && (b1 <= 102)) {\n\t            b1 -= 87;\n\t        } else if ((b1 >= 65) && (b1 <= 70)) {\n\t            b1 -= 55;\n\t        } else if ((b1 >= 48) && (b1 <= 57)) {\n\t            b1 -= 48;\n\t        }\n\t        if ((b2 >= 97) && (b2 <= 102)) {\n\t            b2 -= 87;\n\t        } else if ((b2 >= 65) && (b2 <= 70)) {\n\t            b2 -= 55;\n\t        } else if ((b2 >= 48) && (b2 <= 57)) {\n\t            b2 -= 48;\n\t        }\n\t        iaddr += (b1 * 16 + b2);\n\t    }\n\t    return address(iaddr);\n\t}*/\n\n\n\n\n\n\n\n}",
  "sourcePath": "/Users/alejandrosusillo/Desktop/token_sale/contracts/DappTokenSale.sol",
  "compiler": {
    "name": "solc",
    "version": "0.5.16+commit.9c3226ce.Emscripten.clang"
  },
  "schemaVersion": "3.0.23",
  "updatedAt": "2020-05-12T18:57:14.672Z",
  "networkType": "ethereum",
  "devdoc": {
    "methods": {}
  },
  "userdoc": {
    "methods": {}
  }
}